{
  "contractName": "Election",
  "abi": [
    {
      "constant": true,
      "inputs": [
        {
          "name": "",
          "type": "address"
        }
      ],
      "name": "balances",
      "outputs": [
        {
          "name": "",
          "type": "uint256"
        }
      ],
      "payable": false,
      "stateMutability": "view",
      "type": "function"
    },
    {
      "constant": true,
      "inputs": [],
      "name": "paymentVal",
      "outputs": [
        {
          "name": "",
          "type": "uint256"
        }
      ],
      "payable": false,
      "stateMutability": "view",
      "type": "function"
    },
    {
      "constant": true,
      "inputs": [],
      "name": "candidatesCount",
      "outputs": [
        {
          "name": "",
          "type": "uint256"
        }
      ],
      "payable": false,
      "stateMutability": "view",
      "type": "function"
    },
    {
      "constant": true,
      "inputs": [
        {
          "name": "",
          "type": "uint256"
        }
      ],
      "name": "candidates",
      "outputs": [
        {
          "name": "id",
          "type": "uint256"
        },
        {
          "name": "name",
          "type": "string"
        },
        {
          "name": "voteCount",
          "type": "uint256"
        }
      ],
      "payable": false,
      "stateMutability": "view",
      "type": "function"
    },
    {
      "constant": true,
      "inputs": [],
      "name": "voterCount",
      "outputs": [
        {
          "name": "",
          "type": "uint256"
        }
      ],
      "payable": false,
      "stateMutability": "view",
      "type": "function"
    },
    {
      "constant": true,
      "inputs": [],
      "name": "initDeposit",
      "outputs": [
        {
          "name": "",
          "type": "bool"
        }
      ],
      "payable": false,
      "stateMutability": "view",
      "type": "function"
    },
    {
      "constant": true,
      "inputs": [],
      "name": "owner",
      "outputs": [
        {
          "name": "",
          "type": "address"
        }
      ],
      "payable": false,
      "stateMutability": "view",
      "type": "function"
    },
    {
      "constant": true,
      "inputs": [
        {
          "name": "",
          "type": "address"
        }
      ],
      "name": "voters",
      "outputs": [
        {
          "name": "",
          "type": "bool"
        }
      ],
      "payable": false,
      "stateMutability": "view",
      "type": "function"
    },
    {
      "constant": true,
      "inputs": [
        {
          "name": "",
          "type": "address"
        }
      ],
      "name": "voterPpls",
      "outputs": [
        {
          "name": "",
          "type": "string"
        }
      ],
      "payable": false,
      "stateMutability": "view",
      "type": "function"
    },
    {
      "inputs": [],
      "payable": false,
      "stateMutability": "nonpayable",
      "type": "constructor"
    },
    {
      "anonymous": false,
      "inputs": [
        {
          "indexed": false,
          "name": "sender",
          "type": "address"
        },
        {
          "indexed": false,
          "name": "amount",
          "type": "uint256"
        },
        {
          "indexed": false,
          "name": "balance",
          "type": "uint256"
        }
      ],
      "name": "LogDep",
      "type": "event"
    },
    {
      "anonymous": false,
      "inputs": [
        {
          "indexed": false,
          "name": "recipient",
          "type": "address"
        },
        {
          "indexed": false,
          "name": "amount",
          "type": "uint256"
        },
        {
          "indexed": false,
          "name": "balance",
          "type": "uint256"
        }
      ],
      "name": "LogPayment",
      "type": "event"
    },
    {
      "anonymous": false,
      "inputs": [
        {
          "indexed": false,
          "name": "recipient",
          "type": "address"
        },
        {
          "indexed": false,
          "name": "amount",
          "type": "uint256"
        },
        {
          "indexed": false,
          "name": "balance",
          "type": "uint256"
        }
      ],
      "name": "LogErr",
      "type": "event"
    },
    {
      "anonymous": false,
      "inputs": [
        {
          "indexed": true,
          "name": "_candidateId",
          "type": "uint256"
        }
      ],
      "name": "votedEvent",
      "type": "event"
    },
    {
      "constant": true,
      "inputs": [],
      "name": "getBalance",
      "outputs": [
        {
          "name": "",
          "type": "uint256"
        }
      ],
      "payable": false,
      "stateMutability": "view",
      "type": "function"
    },
    {
      "constant": false,
      "inputs": [
        {
          "name": "_cert",
          "type": "uint256"
        }
      ],
      "name": "depositContract",
      "outputs": [
        {
          "name": "success",
          "type": "bool"
        }
      ],
      "payable": true,
      "stateMutability": "payable",
      "type": "function"
    },
    {
      "constant": false,
      "inputs": [
        {
          "name": "destination",
          "type": "address"
        }
      ],
      "name": "receivePayment",
      "outputs": [
        {
          "name": "",
          "type": "bool"
        }
      ],
      "payable": false,
      "stateMutability": "nonpayable",
      "type": "function"
    },
    {
      "constant": false,
      "inputs": [
        {
          "name": "_voterID",
          "type": "string"
        },
        {
          "name": "sender",
          "type": "address"
        }
      ],
      "name": "addVoters",
      "outputs": [],
      "payable": false,
      "stateMutability": "nonpayable",
      "type": "function"
    },
    {
      "constant": false,
      "inputs": [
        {
          "name": "_candidateId",
          "type": "uint256"
        },
        {
          "name": "_voterID",
          "type": "string"
        }
      ],
      "name": "vote",
      "outputs": [],
      "payable": false,
      "stateMutability": "nonpayable",
      "type": "function"
    }
  ],
  "bytecode": "0x608060405267016345785d8a00006006556000600760146101000a81548160ff0219169083151502179055503480156200003857600080fd5b50620000886040805190810160405280600c81526020017f446f6e616c64205472756d700000000000000000000000000000000000000000815250620001bc640100000000026401000000009004565b620000d76040805190810160405280600b81526020017f4b696d204a6f6e6720556e000000000000000000000000000000000000000000815250620001bc640100000000026401000000009004565b620001266040805190810160405280600981526020017f4a6f686e2043656e610000000000000000000000000000000000000000000000815250620001bc640100000000026401000000009004565b620001756040805190810160405280600a81526020017f42696c6c79204368656e00000000000000000000000000000000000000000000815250620001bc640100000000026401000000009004565b33600760006101000a81548173ffffffffffffffffffffffffffffffffffffffff021916908373ffffffffffffffffffffffffffffffffffffffff160217905550620002ea565b600460008154809291906001019190505550606060405190810160405280600454815260200182815260200160008152506001600060045481526020019081526020016000206000820151816000015560208201518160010190805190602001906200022a9291906200023b565b506040820151816002015590505050565b828054600181600116156101000203166002900490600052602060002090601f016020900481019282601f106200027e57805160ff1916838001178555620002af565b82800160010185558215620002af579182015b82811115620002ae57825182559160200191906001019062000291565b5b509050620002be9190620002c2565b5090565b620002e791905b80821115620002e3576000816000905550600101620002c9565b5090565b90565b610c2280620002fa6000396000f3006080604052600436106100d0576000357c0100000000000000000000000000000000000000000000000000000000900463ffffffff16806312065fe0146100d5578063241084751461010057806327e235e3146101735780632ad54a35146101ca5780632d35a8a2146101f55780633477ee2e1461022057806342169e48146102d45780634368600c146102ff5780638da5cb5b1461032e57806396dae737146103855780639b845899146103e0578063a3ec138d14610418578063b63e30c714610473578063f2331f7c1461052f575b600080fd5b3480156100e157600080fd5b506100ea6105b8565b6040518082815260200191505060405180910390f35b34801561010c57600080fd5b5061017160048036038101908080359060200190929190803590602001908201803590602001908080601f01602080910402602001604051908101604052809392919081815260200183838082843782019150505050505091929192905050506105d7565b005b34801561017f57600080fd5b506101b4600480360381019080803573ffffffffffffffffffffffffffffffffffffffff1690602001909291905050506107ee565b6040518082815260200191505060405180910390f35b3480156101d657600080fd5b506101df610806565b6040518082815260200191505060405180910390f35b34801561020157600080fd5b5061020a61080c565b6040518082815260200191505060405180910390f35b34801561022c57600080fd5b5061024b60048036038101908080359060200190929190505050610812565b6040518084815260200180602001838152602001828103825284818151815260200191508051906020019080838360005b8381101561029757808201518184015260208101905061027c565b50505050905090810190601f1680156102c45780820380516001836020036101000a031916815260200191505b5094505050505060405180910390f35b3480156102e057600080fd5b506102e96108d4565b6040518082815260200191505060405180910390f35b34801561030b57600080fd5b506103146108da565b604051808215151515815260200191505060405180910390f35b34801561033a57600080fd5b506103436108ed565b604051808273ffffffffffffffffffffffffffffffffffffffff1673ffffffffffffffffffffffffffffffffffffffff16815260200191505060405180910390f35b34801561039157600080fd5b506103c6600480360381019080803573ffffffffffffffffffffffffffffffffffffffff169060200190929190505050610913565b604051808215151515815260200191505060405180910390f35b6103fe60048036038101908080359060200190929190505050610967565b604051808215151515815260200191505060405180910390f35b34801561042457600080fd5b50610459600480360381019080803573ffffffffffffffffffffffffffffffffffffffff169060200190929190505050610a17565b604051808215151515815260200191505060405180910390f35b34801561047f57600080fd5b506104b4600480360381019080803573ffffffffffffffffffffffffffffffffffffffff169060200190929190505050610a37565b6040518080602001828103825283818151815260200191508051906020019080838360005b838110156104f45780820151818401526020810190506104d9565b50505050905090810190601f1680156105215780820380516001836020036101000a031916815260200191505b509250505060405180910390f35b34801561053b57600080fd5b506105b6600480360381019080803590602001908201803590602001908080601f0160208091040260200160405190810160405280939291908181526020018383808284378201915050505050509192919290803573ffffffffffffffffffffffffffffffffffffffff169060200190929190505050610ae7565b005b60003073ffffffffffffffffffffffffffffffffffffffff1631905090565b6000803373ffffffffffffffffffffffffffffffffffffffff1673ffffffffffffffffffffffffffffffffffffffff16815260200190815260200160002060009054906101000a900460ff1615151561062f57600080fd5b60008211801561064157506004548211155b151561064c57600080fd5b60016000803373ffffffffffffffffffffffffffffffffffffffff1673ffffffffffffffffffffffffffffffffffffffff16815260200190815260200160002060006101000a81548160ff0219169083151502179055506130d4600360003373ffffffffffffffffffffffffffffffffffffffff1673ffffffffffffffffffffffffffffffffffffffff1681526020019081526020016000206000828254019250508190555060016000838152602001908152602001600020600201600081548092919060010191905055506107228133610ae7565b61072b33610913565b156107bd577fd52000b4a4f62ae6e8bac5ad9397989a721d85389eaa05e4b4e0d0126083ba57336006543073ffffffffffffffffffffffffffffffffffffffff1631604051808473ffffffffffffffffffffffffffffffffffffffff1673ffffffffffffffffffffffffffffffffffffffff168152602001838152602001828152602001935050505060405180910390a15b817ffff3c900d938d21d0990d786e819f29b8d05c1ef587b462b939609625b684b1660405160405180910390a25050565b60036020528060005260406000206000915090505481565b60065481565b60045481565b6001602052806000526040600020600091509050806000015490806001018054600181600116156101000203166002900480601f0160208091040260200160405190810160405280929190818152602001828054600181600116156101000203166002900480156108c45780601f10610899576101008083540402835291602001916108c4565b820191906000526020600020905b8154815290600101906020018083116108a757829003601f168201915b5050505050908060020154905083565b60055481565b600760149054906101000a900460ff1681565b600760009054906101000a900473ffffffffffffffffffffffffffffffffffffffff1681565b60008173ffffffffffffffffffffffffffffffffffffffff166108fc6006549081150290604051600060405180830381858888f1935050505015801561095d573d6000803e3d6000fd5b5060019050919050565b60006001600760146101000a81548160ff0219169083151502179055507f5f0e5863a4065968a9a18554ebb203599c3a37ce15e0ef324300e5d76729522633343073ffffffffffffffffffffffffffffffffffffffff1631604051808473ffffffffffffffffffffffffffffffffffffffff1673ffffffffffffffffffffffffffffffffffffffff168152602001838152602001828152602001935050505060405180910390a160019050919050565b60006020528060005260406000206000915054906101000a900460ff1681565b60026020528060005260406000206000915090508054600181600116156101000203166002900480601f016020809104026020016040519081016040528092919081815260200182805460018160011615610100020316600290048015610adf5780601f10610ab457610100808354040283529160200191610adf565b820191906000526020600020905b815481529060010190602001808311610ac257829003601f168201915b505050505081565b60056000815480929190600101919050555081600260008373ffffffffffffffffffffffffffffffffffffffff1673ffffffffffffffffffffffffffffffffffffffff1681526020019081526020016000209080519060200190610b4c929190610b51565b505050565b828054600181600116156101000203166002900490600052602060002090601f016020900481019282601f10610b9257805160ff1916838001178555610bc0565b82800160010185558215610bc0579182015b82811115610bbf578251825591602001919060010190610ba4565b5b509050610bcd9190610bd1565b5090565b610bf391905b80821115610bef576000816000905550600101610bd7565b5090565b905600a165627a7a72305820eef492e3c3b9fbd076c755325f378db380edeb1f40c75294c1f6aa7407ddd5740029",
  "source": "pragma solidity ^0.4.24;\n\ncontract Election {\n    // Model a Candidate\n    struct Candidate {\n        uint id;\n        string name;\n        uint voteCount;\n    }\n\n    struct VoterPpl {\n        uint id;\n        uint password;\n    }\n\n    //testing log\n    event LogDep (address sender,    uint amount, uint balance);\n    event LogPayment(address recipient, uint amount, uint balance);\n    event LogErr (address recipient, uint amount, uint balance);\n\n    // Store  \n    // Store accounts that have voted\n    mapping(address => bool) public voters;\n    // Store Candidates\n    // Fetch Candidate\n    mapping(uint => Candidate) public candidates;\n    mapping(address => string) public voterPpls;\n    mapping(address => uint) public balances;\n    // Store Candidates Count\n    uint public candidatesCount;\n    uint public voterCount;\n    uint public paymentVal = 0.1*(10**18);\n    address public owner;\n    bool public initDeposit = false;\n\n    // voted event\n    event votedEvent (\n        uint indexed _candidateId\n    );\n\n\n    //returns ETH in this smart contract;\n    function getBalance() public view returns (uint256) {\n        return address(this).balance;\n    }\n\n    // //allow other to send to this contract\n    function depositContract (uint _cert) \n    payable \n    returns(bool success) {\n        initDeposit = true;\n        LogDep (msg.sender, msg.value, this.balance);\n        return true;\n    }\n\n    //testing\n    // function send() public {\n    //      //msg.sender.transfer(10);\n    //      msg.sender.buyCollectible(2, {from:web3.eth.accounts[1], value:web3.toWei(10,'ether')}\n    // }\n\n    //app.depositContract(2, {from:web3.eth.accounts[1], value:web3.toWei(10,'ether')})\n\n    function receivePayment (address destination) \n    public \n    returns (bool) {\n        destination.transfer(paymentVal);\n        return true;\n    }\n\n    //testing\n    function Election () public {\n\n        addCandidate(\"Donald Trump\");\n        addCandidate(\"Kim Jong Un\");\n        addCandidate(\"John Cena\");\n        addCandidate(\"Billy Chen\");\n        owner = msg.sender;\n    }\n\n    function addCandidate (string _name) private {\n        candidatesCount ++;\n        candidates[candidatesCount] = Candidate(candidatesCount, _name, 0);\n    }\n\n    /*function send(address _receiver) payable {\n        _receiver.send(10);\n    }*/\n    function addVoters (string _voterID, address sender) public {\n        voterCount++;\n        voterPpls[sender] = _voterID;\n    }\n\n    function vote (uint _candidateId, string _voterID) public {\n        // require that they haven't voted before\n        require(!voters[msg.sender]);\n\n        // require a valid candidate\n        require(_candidateId > 0 && _candidateId <= candidatesCount);\n\n        // record that voter has voted\n        voters[msg.sender] = true;\n        balances[msg.sender] += 12500;\n\n\n        // update candidate vote Count\n        candidates[_candidateId].voteCount ++;\n\n        addVoters(_voterID, msg.sender);\n        \n        if(receivePayment(msg.sender)){\n            LogPayment(msg.sender, paymentVal, this.balance);\n        }\n\n        // trigger voted event\n        votedEvent(_candidateId);\n\n    }\n}\n",
  "sourcePath": "/Users/johncena/Desktop/Fintech_Final/contracts/Election.sol",
  "compiler": {
    "name": "solc",
    "version": "0.4.24+commit.e67f0147.Emscripten.clang"
  },
  "schemaVersion": "2.0.0",
  "updatedAt": "2018-06-20T17:17:45.577Z"
}